:100000001AC1000047C1000045C1000043C1000003
:1000100041C100003FC100003DC100003BC10000E4
:1000200039C1000037C1000035C1000033C10000F4
:1000300031C100002FC100002DC100002BC1000004
:1000400029C1000027C1000025C1000023C1000014
:1000500021C100001FC100001DC100005BC50000E0
:1000600019C1000021C50000F6C4000013C1000042
:1000700011C100000FC100000DC100000BC1000044
:1000800009C1000007C1000005C1000003C1000054
:1000900001C10000FFC00000FDC00000FBC0000067
:1000A000F9C00000F7C00000F5C00000F3C0000078
:1000B000F1C00000EFC00000EDC00000EBC0000088
:1000C000E9C00000E7C00000E5C00000E3C0000098
:1000D000E1C00000DFC00000DDC00000DBC00000A8
:1000E000D9C00000F502F802E702EB02EF022F038D
:1000F000FC02000306030A030E03140318031C0387
:100100002F03220326032A03640369036E03780383
:100110008203FB038C0394039C03A603B003BA037E
:10012000C903D303FB03DD03E703F10300000A0B5C
:1001300002090C0D0E080703040100000000000076
:1001400000000000000000000000000000000000AF
:10015000000000000000000012111000000000006C
:10016000000000000000000000000000000000008F
:10017000000000002200250028002B002E00310086
:10018000340002010000050108010B0100002100FC
:10019000240027002A002D00300033000101000058
:1001A000040107010A0105050505070508080808F7
:1001B000020202020A0A08080404040401010101FF
:1001C00001010101030303030303030304070707FA
:1001D0000C0C0C0C0C0C0C0C02020202060606069F
:1001E000060606060B0B0B0B0B0B0B0B010210206C
:1001F000200808102040102040800201020108045D
:1002000002010102040810204080804020100804F0
:100210000201800402018040201008040201080449
:10022000020101020408102040800102040810208D
:100230004080D405B80811241FBECFEFD1E2DEBF45
:10024000CDBF00E00CBF23E0A0E4B2E001C01D92EE
:10025000A938B207E1F712E0A0E0B2E0E2EEF6E181
:1002600000E00BBF02C007900D92A034B107D9F790
:1002700011E0CAE1D1E000E005C021970109802F1B
:10028000FE01F1D7C931D10780E00807B1F712D5D7
:100290000C94600BB5CE90E0FC01E451FE4F24912C
:1002A000FC01EA55FE4F8491882399F090E0880F75
:1002B000991FFC01E457FE4FA591B491FC01EE5843
:1002C000FE4F859194918FB7F894EC91E22BEC93CB
:1002D0008FBF0895E1E5F2E0A089B18982E08C93B7
:1002E000A485B5851C92A685B7858FEC8C93108E5E
:1002F000A489B58986E08C93A289B3898C918061A9
:100300008C93A289B3898C9188608C93A289B389DC
:100310008C9180688C930288F389E02D80818F7D99
:1003200080830895CF92DF92EF92FF920F931F93F5
:10033000CF93DF936C017A018B01C0E0D0E0CE1542
:10034000DF0589F0D8016D918D01D601ED91FC9109
:100350000190F081E02DC6011995892B11F47E01E1
:1003600002C02196ECCFC701DF91CF911F910F9171
:10037000FF90EF90DF90CF900895089580E090E097
:100380000895FC01538D448D252F30E0842F90E09B
:10039000821B930B541710F0CF9608950197089580
:1003A000FC01918D828D981761F0828DDF01A80F7D
:1003B000B11D5D968C91928D9F5F9F73928F90E09F
:1003C00008958FEF9FEF0895FC01918D828D98170E
:1003D00031F0828DE80FF11D858D90E008958FEF4B
:1003E0009FEF0895FC01918D228D892F90E0805C14
:1003F0009F4F821B91098F739927089581E592E0A1
:10040000F1DF21E0892B09F420E0822F0895FC011F
:10041000848DDF01A80FB11DA35ABF4F2C91848D8D
:1004200090E001968F739927848FA689B7892C93C2
:10043000A089B1898C9180648C93938D848D98135D
:1004400006C00288F389E02D80818F7D8083089526
:10045000EF92FF920F931F93CF93DF93EC0181E014
:10046000888F9B8D8C8D981305C0E889F9898081D0
:1004700085FD23C0F62E0B8D10E00F5F1F4F0F730D
:100480001127E02E8C8DE8120BC00FB607FCFACFB7
:10049000E889F989808185FFF5CFCE01B8DFF2CFF9
:1004A0008B8DFE01E80FF11DE35AFF4FF0820B8F99
:1004B000EA89FB898081806207C0EE89FF896083B9
:1004C000E889F98980818064808381E090E0DF9110
:1004D000CF911F910F91FF90EF900895CF93DF93ED
:1004E000EC01888D8823C1F0EA89FB89808185FD34
:1004F00005C0A889B9898C9186FD0EC00FB607FC8E
:10050000F5CF808185FFF2CFA889B9898C9185FFCD
:10051000EDCFCE017CDFE8CFDF91CF91089580E071
:1005200090E0892B19F06ADF811125C080E090E00E
:10053000892B41F080E090E0892B21F00E9400009F
:1005400081111CC080E090E0892B41F080E090E0B8
:10055000892B21F00E940000811113C080E090E0FF
:10056000892BA1F080E090E0892B81F00E940000AF
:1005700081110AC008950E940000D8CF0E94000097
:10058000E1CF0E940000EACF0C9400000895362FBE
:1005900090E0FC01E45DFE4F4491FC01E451FE4F0C
:1005A0002491FC01EA55FE4F9491992309F46AC005
:1005B000442309F454C050E0FA013197E231F105C7
:1005C00008F04DC08827EE58FF4F8F4F4CC68091E2
:1005D00080008F7707C0809180008F7D03C080915D
:1005E0008000877F809380003AC084B58F7702C0F7
:1005F00084B58F7D84BD33C08091B0008F7703C0F8
:100600008091B0008F7D8093B00029C080919000D0
:100610008F7707C0809190008F7D03C080919000FC
:10062000877F809390001BC08091A0008F7707C0C8
:100630008091A0008F7D03C08091A000877F809370
:10064000A0000DC0809120018F7707C0809120010C
:100650008F7D03C080912001877F80932001E92F47
:10066000F0E0EE0FFF1FEE58FE4FA591B4918FB74B
:10067000F894EC91311103C020952E2301C02E2B4C
:100680002C938FBF0895CF93DF93EC0183E003DEBB
:10069000209711F460E004C0CF3FD10529F461E058
:1006A00083E0DF91CF9173CFEFE2F1E0E4918E2F01
:1006B00090E0FC013197E231F10508F09CC08827F9
:1006C000EC57FF4F8F4FCFC584B5806884BDC7BD41
:1006D00097C084B5806284BDC8BD92C080918000FF
:1006E000806880938000D0938900C093880088C080
:1006F00080918000806280938000D0938B00C093B3
:100700008A007EC080918000886080938000D093B2
:100710008D00C0938C0074C08091B000806880937D
:10072000B000C093B3006CC08091B0008062809331
:10073000B000C093B40064C0809190008068809342
:100740009000D0939900C09398005AC08091900077
:10075000806280939000D0939B00C0939A0050C019
:1007600080919000886080939000D0939D00C0930A
:100770009C0046C08091A00080688093A00080917A
:10078000A0008F7B8093A000D093A900C093A80005
:1007900037C08091A00080628093A000D093AB000E
:1007A000C093AA002DC08091A00088608093A00013
:1007B000D093AD00C093AC0023C08091200180682D
:1007C00080932001D0932901C093280119C0809102
:1007D0002001806280932001D0932B01C0932A01D5
:1007E0000FC080912001886080932001D0932D015B
:1007F000C0932C0105C0C038D1050CF050CF4ACFB2
:10080000DF91CF9108953FB7F89480914502909180
:100810004602A0914702B091480226B5A89B05C0A8
:100820002F3F19F00196A11DB11D3FBFBA2FA92F6F
:10083000982F8827820F911DA11DB11DBC01CD01EC
:1008400042E0660F771F881F991F4A95D1F70895D8
:100850008F929F92AF92BF92CF92DF92EF92FF92D0
:100860006B017C01D0DF4B015C01C114D104E104B8
:10087000F104E9F0C8DFDC01CB0188199909AA0964
:10088000BB09883E9340A105B10578F321E0C21A67
:10089000D108E108F10888EE880E83E0981EA11CBB
:1008A000B11CC114D104E104F10421F7DECFFF90A3
:1008B000EF90DF90CF90BF90AF909F908F90089572
:1008C0002FB7F894609141027091420280914302E7
:1008D000909144022FBF08958F929F92AF92BF9242
:1008E000CF92DF92EF92FF926B017C01E9DF4B0127
:1008F0005C01C60ED71EE81EF91EE2DF68157905F9
:100900008A059B0528F0C616D706E806F906A8F75B
:10091000FF90EF90DF90CF90BF90AF909F908F901F
:1009200008956115710579F0FB0101900020E9F748
:100930003197AF01461B570BDC01ED91FC91028012
:10094000F381E02D199480E090E008954F925F923A
:100950006F927F92EF92FF920F931F93CF93DF934B
:10096000CDB7DEB7A1970FB6F894DEBF0FBECDBFEF
:100970007C01FA01CB0119A2223008F42AE08E0191
:100980000F5D1F4F422E512C612C712CBF01A30112
:10099000920147D4F901CA01015011096A3014F4D7
:1009A000605D01C0695CD8016C93232B242B252B3F
:1009B00069F7B801C701B5DFA1960FB6F894DEBF9D
:1009C0000FBECDBFDF91CF911F910F91FF90EF90A0
:1009D0007F906F905F904F9008955ED6EF92FF9258
:1009E0000F931F93CF93DF93EC017B018A018881E2
:1009F0009981009729F02A813B8124173507E8F473
:100A0000B8016F5F7F4F64D5009759F09983888351
:100A10001B830A832C813D81232B79F4FC011082F6
:100A20000CC088819981009709F0BAD41982188284
:100A30001D821C821B821A8206C01D830C83B70193
:100A40008881998136D6CE01DF91CF911F910F9188
:100A5000FF90EF9008951F920F920FB60F921124FE
:100A60000BB60F922F933F934F935F936F937F93A8
:100A70008F939F93AF93BF93EF93FF9381E592E0A2
:100A8000C6DCFF91EF91BF91AF919F918F917F91C4
:100A90006F915F914F913F912F910F900BBE0F90EF
:100AA0000FBE0F901F9018951F920F920FB60F92C6
:100AB00011240BB60F922F938F939F93EF93FF9375
:100AC000E0916102F09162028081E0916702F09111
:100AD000680282FD12C0908180916A028F5F8F73DD
:100AE00020916B02821751F0E0916A02F0E0EF5A18
:100AF000FD4F958F80936A0201C08081FF91EF9135
:100B00009F918F912F910F900BBE0F900FBE0F9062
:100B10001F9018951F920F920FB60F9211242F93CA
:100B20003F938F939F93AF93BF9380914102909196
:100B30004202A0914302B09144023091400223E06E
:100B4000230F2D3720F40196A11DB11D05C026E805
:100B5000230F0296A11DB11D2093400280934102F4
:100B600090934202A0934302B093440280914502C5
:100B700090914602A0914702B09148020196A11DB2
:100B8000B11D8093450290934602A0934702B09313
:100B90004802BF91AF919F918F913F912F910F90FC
:100BA0000FBE0F901F901895CF93DF93E1E5F2E011
:100BB0001382128288EE93E0A0E0B0E084839583F4
:100BC000A683B7838AE092E09183808385EC90E0EE
:100BD0009587848784EC90E09787868780EC90E007
:100BE000918B808B81EC90E0938B828B82EC90E0F8
:100BF000958B848B86EC90E0978B868B118E128E72
:100C0000138E148EEEEEF2E0168217821086118695
:100C1000128613861486158616861786108A118A00
:100C2000128A138A148A158AC6E3D3E08DE28A8772
:100C30008CE388AF8EE389AF83E28AAF84E28BAF27
:100C40001CAE1092730310927503109274031092ED
:100C5000770310927603109279031092780340E0A4
:100C600050E069E272E084E793E0B8DE10927A0324
:100C700010927C0310927B0310927E0310927D03EE
:100C80001092800310927F0340E050E069E272E02E
:100C90008BE793E0A3DE8CE0FEDA89E0FCDA1B82CE
:100CA0001A82198618861D821C821F821E82DF917D
:100CB000CF910895789484B5826084BD84B58160B5
:100CC00084BD85B5826085BD85B5816085BD809117
:100CD0006E00816080936E0010928100809181008F
:100CE0008260809381008091810081608093810087
:100CF000809180008160809380008091B100846049
:100D00008093B1008091B00081608093B0008091A9
:100D10009100826080939100809191008160809326
:100D20009100809190008160809390008091A1005B
:100D300082608093A1008091A10081608093A100D6
:100D40008091A00081608093A00080912101826049
:100D50008093210180912101816080932101809104
:100D6000200181608093200180917A0084608093CB
:100D70007A0080917A00826080937A0080917A0074
:100D8000816080937A0080917A00806880937A00F5
:100D90001092C10010923203109233031092340368
:100DA000109235031092F0021092F1021092F202AA
:100DB0001092F30268EB7BE080E090E08DDD81E54E
:100DC00092E0909331038093300384DA79DD60936D
:100DD000F0027093F1028093F2029093F30268E1C3
:100DE00072E080913003909131039BDD6AE070E006
:100DF00080E090E071DD81E0809304036BDA84EFA2
:100E0000C82EDD24D394E12CF12CC1E059DD672BF1
:100E1000682B692B39F454DD623071058105910529
:100E200008F4F8C04DDD60934D0270934E0280933C
:100E30004F02909350028090490290904A02A090F5
:100E40004B02B0904C02681579058A059B0540F469
:100E50006093490270934A0280934B0290934C0234
:100E60008090490290904A02A0904B02B0904C02B0
:100E70009B01AC01281939094A095B0949015A014A
:100E80003AEF83169104A104B10408F4C3C060933F
:100E9000490270934A0280934B0290934C02C09295
:100EA000FC02D092FD02E092FE02F092FF0210924C
:100EB0000003109201031092020310920303809129
:100EC000F4029091F502A091F602B091F70280939E
:100ED000F8029093F902A093FA02B093FB02F0DCBF
:100EE0006093F4027093F5028093F6029093F702F8
:100EF000E7DC6093F0027093F1028093F20290932A
:100F0000F302DEDC4B015C016AE272E080913003A7
:100F10009091310306DD2AE041E050E060E070E0AE
:100F2000809130039091310311DD61E372E0809193
:100F3000300390913103F5DC2AE0B501A4018091E2
:100F400030039091310302DD63E372E0809130035E
:100F500090913103E6DC8091F4029091F502A0912A
:100F6000F602B091F702B501A401481B590B6A0BB8
:100F70007B0B2AE08091300390913103E7DC63E33F
:100F800072E08091300390913103CBDC4091F40208
:100F90005091F5026091F6027091F7028091F8028B
:100FA0009091F902A091FA02B091FB02481B590BF3
:100FB0006A0B7B0B2AE08091300390913103C6DCF1
:100FC00065E372E08091300390913103AADC78DC14
:100FD000AB01BC012AE08091300390913103B6DC73
:100FE000A0903003B090310367E372E0C50199DC53
:100FF00067E272E0C50195DC62E070E080E090E0BD
:101000006BDC5EDC6093F4027093F5028093F60271
:101010009093F70281E592E0E5D9181619060CF0D5
:1010200056C081E592E0BCD9B82E80916F03B8120A
:1010300030C010927303E0917203F0E0EA5CFC4F61
:1010400013866EE372E081E493E0B9D09BD0909375
:101050003903809338036EE372E080E090E0AFD014
:1010600091D090933B0380933A036EE372E080E06B
:1010700090E0A5D087D090933D0380933C036EE32E
:1010800072E080E090E09BD07DD090933F0380930E
:101090003E0380917303882389F080917203E82FC7
:1010A000F0E0EA5CFC4FB38691E0980F90937203F6
:1010B00020914003921302C08093720380916E03CB
:1010C000B812A8CF10927203C0937303A3CF80917C
:1010D000380390913903892B21F461E089E057DAD4
:1010E00008C060E089E053DA80913A0390913B03B5
:1010F000CADA80913C0390913D03892B11F461E0A1
:1011000001C060E08CE043DA80913E0390913F03A0
:10111000019761F561E08CE03ADA60E089E037DA66
:101120008FEF90E0B0DA68EB7BE080E090E090DB5E
:1011300061E089E02CDA68EE73E080E090E088DB23
:1011400060E08CE024DA60E089E021DA8BE790E06F
:101150009ADA68EB7BE080E090E07ADB61E089E09E
:1011600016DA68EE73E080E090E072DBD8D94ECEFC
:1011700080917B0390917C0313D1809174039091B3
:1011800075030EC1FC0188279927E894219120322C
:10119000E9F3293010F02E30C8F32B3239F02D321C
:1011A00031F4689403C035D0820F911D21912053F2
:1011B0002A30C8F31EF4909581959F4F089543E817
:1011C00053E000C0FA01A191B081009719F4109783
:1011D000E1F0CD01DC01CD010D90002011F4C00142
:1011E00013C0FB012191222319F02015D9F7F3CF69
:1011F000FB012191201519F41E92119606C022239D
:10120000C1F70D900020A1F7D001FA01A193B0839E
:1012100008957AE0979F902D879F802D910D11243E
:101220000895A1E21A2EAA1BBB1BFD010DC0AA1F27
:10123000BB1FEE1FFF1FA217B307E407F50720F03F
:10124000A21BB30BE40BF50B661F771F881F991FBA
:101250001A9469F760957095809590959B01AC0103
:10126000BD01CF010895EE0FFF1F881F8BBF0790B0
:10127000F691E02D1994CF93DF938230910510F40D
:1012800082E090E0E0918703F091880320E030E075
:10129000C0E0D0E0309711F14081518148175907E3
:1012A000C0F04817590761F482819381209719F0A3
:1012B0009B838A832BC0909388038093870326C0E7
:1012C0002115310519F04217530718F49A01BE0190
:1012D000DF01EF010280F381E02DDCCF2115310524
:1012E00009F1281B390B2430310590F412968D91A9
:1012F0009C9113976115710521F0FB019383828303
:1013000004C09093880380938703FD01329644C004
:10131000FD01E20FF31F81939193225031092D9328
:101320003C933AC02091850330918603232B41F4EE
:1013300020910202309103023093860320938503AB
:1013400020910002309101022115310541F42DB7A1
:101350003EB74091040250910502241B350BE091E9
:101360008503F0918603E217F307A0F42E1B3F0BD1
:101370002817390778F0AC014E5F5F4F2417350707
:1013800048F04E0F5F1F509386034093850381936F
:10139000919302C0E0E0F0E0CF01DF91CF9108959A
:1013A0000F931F93CF93DF93009709F48CC0FC0138
:1013B00032971382128200918703109188030115DE
:1013C000110581F420813181820F931F20918503C3
:1013D000309186032817390779F5F0938603E09357
:1013E000850371C0D80140E050E0AE17BF0750F44C
:1013F00012962D913C911397AD012115310509F1FC
:10140000D901F3CF9D01DA01338322836081718199
:10141000860F971F8217930769F4EC0128813981A1
:10142000260F371F2E5F3F4F318320838A819B8198
:1014300093838283452B29F4F0938803E0938703F9
:1014400042C01396FC93EE931297ED014991599186
:101450009E01240F351FE217F30771F480819181FB
:10146000840F951F029611969C938E93828193818F
:1014700013969C938E931297E0E0F0E0D8011296B9
:101480008D919C911397009719F0F8018C01F6CF7C
:101490008D919C9198012E5F3F4F820F931F209159
:1014A0008503309186032817390769F4309729F4AA
:1014B000109288031092870302C013821282109345
:1014C000860300938503DF91CF911F910F910895BB
:1014D0006F927F928F929F92AF92BF92CF92DF9244
:1014E000EF92FF920F931F93CF93DF93EC0100973E
:1014F00081F4CB01DF91CF911F910F91FF90EF907D
:10150000DF90CF90BF90AF909F908F907F906F9023
:10151000B2CEFC01E60FF71F9C0122503109E21701
:10152000F30708F4A8C0D9010D911C911197061773
:101530001707A8F00530110508F49BC0C8010497EF
:101540008617970708F495C002501109061B170B60
:10155000019311936D937C93CF0122DF8AC05B01CD
:10156000A01AB10A4C01800E911EA0918703B09180
:10157000880340E050E0E12CF12C109709F44AC0B8
:10158000A815B905D1F56D907C901197630182E0A3
:10159000C80ED11CCA14DB0480F1A3014A195B09EF
:1015A0006A0182E0C80ED11C1296BC901297139665
:1015B000AC91B5E0CB16D10440F0B282A383518345
:1015C0004083D9016D937C930AC00E5F1F4FC30106
:1015D000800F911FF90191838083EB2DFA2FE11485
:1015E000F10431F0D7011396FC93EE93129741C0AA
:1015F000F0938803E09387033CC08D919C911197F1
:101600004817590708F4AC017D0112960D90BC9162
:10161000A02DB3CF809185039091860388159905FD
:10162000E1F446175707C8F4809100029091010237
:10163000009741F48DB79EB7409104025091050286
:10164000841B950BE817F907B0F4F0938603E09339
:101650008503F901718360830CC0CB010CDE7C0132
:10166000009749F0A801BE011BD0CE0199DEC70149
:1016700004C0CE0102C080E090E0DF91CF911F91C5
:101680000F91FF90EF90DF90CF90BF90AF909F9021
:101690008F907F906F90089581E090E0F89410C053
:1016A000FB01DC0102C001900D9241505040D8F77F
:1016B0000895FB01DC0101900D920020E1F70895EF
:1016C00011E0CAE1D1E000E005C0802FFE01CBDDD2
:1016D0002196011DCB31D10780E00807B1F7F894BE
:0216E000FFCF3A
:1016E2000000890380000000000028029201C1016D
:1016F2006E02F201D001E401564D4450565F317C36
:10170200315F564D4450560D0A00564D4450455FC8
:10171200003A323A007C005F564D445045002C009E
:00000001FF
